:10000000C0430020C97B0100310B02009D7B010031
:100010009D7B01009D7B01009D7B01000000000095
:100020000000000000000000000000000578010052
:100030009D7B010000000000B17701009D7B010065
:10004000B5780100EB1E0200B5780100B57801001B
:10005000B5780100B5780100B5780100B5780100E8
:10006000991E0200B5780100B5780100D11E02008A
:10007000B5780100B5780100B5780100B5780100C8
:10008000B5780100B5780100B5780100B5780100B8
:10009000B5780100B5780100B5780100B5780100A8
:1000A000B5780100B5780100B5780100B578010098
:1000B000B5780100B5780100B5780100B578010088
:1000C000B5780100B5780100B5780100B578010078
:1000D000B5780100B5780100B5780100B578010068
:1000E000B5780100B5780100B5780100B578010058
:1000F000B5780100B5780100B5780100B578010048
:1001000081F0004102E000BF83F0004330B54FEAC8
:1001100041044FEA430594EA050F08BF90EA020F35
:100120001FBF54EA000C55EA020C7FEA645C7FEAC8
:10013000655C00F0E2804FEA5454D4EB5555B8BFEB
:100140006D420CDD2C4480EA020281EA030382EA5C
:10015000000083EA010180EA020281EA0303362DEE
:1001600088BF30BD11F0004F4FEA01314FF4801CC1
:100170004CEA113102D0404261EB410113F0004FD3
:100180004FEA03334CEA133302D0524263EB43038A
:1001900094EA050F00F0A780A4F10104D5F1200E28
:1001A0000DDB02FA0EFC22FA05F2801841F1000183
:1001B00003FA0EF2801843FA05F359410EE0A5F157
:1001C00020050EF1200E012A03FA0EFC28BF4CF088
:1001D000020C43FA05F3C01851EBE37101F000453E
:1001E00007D54FF0000EDCF1000C7EEB00006EEB4B
:1001F0000101B1F5801F1BD3B1F5001F0CD34908D5
:100200005FEA30004FEA3C0C04F101044FEA44522B
:1002100012F5800F80F09A80BCF1004F08BF5FEAB2
:10022000500C50F1000041EB045141EA050130BD92
:100230005FEA4C0C404141EB0101013C28BFB1F5A4
:10024000801FE9D291F0000F04BF01460020B1FAEF
:1002500081F308BF2033A3F10B03B3F120020CDAC2
:100260000C3208DD02F1140CC2F10C0201FA0CF0A0
:1002700021FA02F10CE002F11402D8BFC2F1200C05
:1002800001FA02F120FA0CFCDCBF41EA0C019040BB
:10029000E41AA2BF01EB0451294330BD6FEA040404
:1002A0001F3C1CDA0C340EDC04F11404C4F12002EF
:1002B00020FA04F001FA02F340EA030021FA04F301
:1002C00045EA030130BDC4F10C04C4F1200220FA58
:1002D00002F001FA04F340EA0300294630BD21FA96
:1002E00004F0294630BD94F0000F83F4801306BF5C
:1002F00081F480110134013D4EE77FEA645C18BF50
:100300007FEA655C29D094EA050F08BF90EA020FE6
:1003100005D054EA000C04BF1946104630BD91EADE
:10032000030F1EBF0021002030BD5FEA545C05D1E1
:100330004000494128BF41F0004130BD14F5800420
:100340003CBF01F5801130BD01F0004545F0FE4194
:1003500041F470014FF0000030BD7FEA645C1ABFC9
:10036000194610467FEA655C1CBF0B46024650EA00
:10037000013406BF52EA033591EA030F41F400212C
:1003800030BD00BF90F0000F04BF0021704730B5B2
:100390004FF4806404F132044FF000054FF0000187
:1003A00050E700BF90F0000F04BF0021704730B548
:1003B0004FF4806404F1320410F0004548BF40421D
:1003C0004FF000013EE700BF42004FEAE2014FEA72
:1003D00031014FEA02701FBF12F07F4393F07F4F4D
:1003E00081F06051704732F07F4208BF704793F050
:1003F0007F4F04BF41F40021704730B54FF4607463
:1004000001F0004521F000411CE700BF50EA010265
:1004100008BF704730B54FF000050AE050EA01020E
:1004200008BF704730B511F0004502D5404261EB7E
:1004300041014FF4806404F132045FEA915C3FF4BF
:10044000D8AE4FF003025FEADC0C18BF03325FEA5C
:10045000DC0C18BF033202EBDC02C2F1200300FA0D
:1004600003FC20FA02F001FA03FE40EA0E0021FA32
:1004700002F11444BDE600BF70B54FF0FF0C4CF420
:10048000E06C1CEA11541DBF1CEA135594EA0C0FD2
:1004900095EA0C0F00F0DEF82C4481EA030621EA0D
:1004A0004C5123EA4C5350EA013518BF52EA033548
:1004B00041F4801143F4801338D0A0FB02CE4FF0FA
:1004C0000005E1FB02E506F00042E0FB03E54FF02A
:1004D0000006E1FB03569CF0000F18BF4EF0010E22
:1004E000A4F1FF04B6F5007F64F5407404D25FEA1E
:1004F0004E0E6D4146EB060642EAC62141EA5551D1
:100500004FEAC52040EA5E504FEACE2EB4F1FD0C12
:1005100088BFBCF5E06F1ED8BEF1004F08BF5FEA90
:10052000500E50F1000041EB045170BD06F0004642
:1005300046EA010140EA020081EA0301B4EB5C04EF
:10054000C2BFD4EB0C0541EA045170BD41F48011E7
:100550004FF0000E013C00F3AB8014F1360FDEBF0C
:10056000002001F0004170BDC4F10004203C35DAE8
:100570000C341BDC04F11404C4F1200500FA05F36B
:1005800020FA04F001FA05F240EA020001F000420C
:1005900021F0004110EBD37021FA04F642EB060182
:1005A0005EEA430E08BF20EAD37070BDC4F10C04AC
:1005B000C4F1200500FA04F320FA05F001FA04F270
:1005C00040EA020001F0004110EBD37041F100015C
:1005D0005EEA430E08BF20EAD37070BDC4F1200567
:1005E00000FA05F24EEA020E20FA04F301FA05F2CF
:1005F00043EA020321FA04F001F0004121FA04F277
:1006000020EA020000EBD3705EEA430E08BF20EA46
:10061000D37070BD94F0000F0FD101F00046400080
:1006200041EB010111F4801F08BF013CF7D041EA02
:10063000060195F0000F18BF704703F00046520006
:1006400043EB030313F4801F08BF013DF7D043EAD7
:100650000603704794EA0C0F0CEA135518BF95EA8D
:100660000C0F0CD050EA410618BF52EA4306D1D114
:1006700081EA030101F000414FF0000070BD50EA33
:10068000410606BF1046194652EA430619D094EABD
:100690000C0F02D150EA013613D195EA0C0F05D1A7
:1006A00052EA03361CBF104619460AD181EA0301FB
:1006B00001F0004141F0FE4141F470014FF00000B3
:1006C00070BD41F0FE4141F4780170BD70B54FF04E
:1006D000FF0C4CF4E06C1CEA11541DBF1CEA1355CE
:1006E00094EA0C0F95EA0C0F00F0A7F8A4EB0504B0
:1006F00081EA030E52EA03354FEA013100F08880A7
:100700004FEA03334FF0805545EA131343EA12636F
:100710004FEA022245EA111545EA10654FEA002624
:100720000EF000419D4208BF964244F1FD0404F5DD
:10073000407402D25B084FEA3202B61A65EB030539
:100740005B084FEA32024FF480104FF4002CB6EBF6
:10075000020E75EB030E22BFB61A754640EA0C0076
:100760005B084FEA3202B6EB020E75EB030E22BFB6
:10077000B61A754640EA5C005B084FEA3202B6EBF7
:10078000020E75EB030E22BFB61A754640EA9C00B6
:100790005B084FEA3202B6EB020E75EB030E22BF86
:1007A000B61A754640EADC0055EA060E18D04FEA44
:1007B000051545EA16754FEA06164FEAC30343EAE4
:1007C00052734FEAC2025FEA1C1CC0D111F4801FB1
:1007D0000BD141EA00014FF000004FF0004CB6E7AA
:1007E00011F4801F04BF01430020B4F1FD0C88BF49
:1007F000BCF5E06F3FF6AFAEB5EB030C04BFB6EB54
:10080000020C5FEA500C50F1000041EB045170BD46
:100810000EF0004E4EEA113114EB5C04C2BFD4EB73
:100820000C0541EA045170BD41F480114FF0000EF7
:10083000013C90E645EA060E8DE60CEA135594EA73
:100840000C0F08BF95EA0C0F3FF43BAF94EA0C0F76
:100850000AD150EA01347FF434AF95EA0C0F7FF4EB
:1008600025AF104619462CE795EA0C0F06D152EA3F
:1008700003353FF4FDAE1046194622E750EA410623
:1008800018BF52EA43067FF4C5AE50EA41047FF434
:100890000DAF52EA43057FF4EBAE12E74FEA410297
:1008A000B2F1E04324BFB3F5001CDCF1FE5C0DD9CE
:1008B00001F0004C4FEAC0024CEA5070B2F1004F18
:1008C00040EB830008BF20F00100704711F0804F1B
:1008D00021D113F13872BCBF01F00040704741F4E0
:1008E00080114FEA5252C2F11802C2F1200C10FAE4
:1008F0000CF320FA02F018BF40F001004FEAC123C8
:100900004FEAD32303FA0CFC40EA0C0023FA02F36B
:100910004FEA4303CCE77FEA625307D150EA013341
:100920001EBF4FF0FE4040F44000704701F0004011
:1009300040F0FE4040F40000704700BF80F00040EF
:1009400002E000BF81F0004142001FBF5FEA4103A7
:1009500092EA030F7FEA226C7FEA236C6AD04FEAA7
:100960001262D2EB1363C1BFD218414048404140EC
:10097000B8BF5B42192B88BF704710F0004F40F49E
:10098000000020F07F4018BF404211F0004F41F4BA
:10099000000121F07F4118BF494292EA030F3FD086
:1009A000A2F1010241FA03FC10EB0C00C3F1200399
:1009B00001FA03F100F0004302D5494260EB400028
:1009C000B0F5000F13D3B0F1807F06D340084FEA93
:1009D000310102F10102FE2A51D2B1F1004F40EB88
:1009E000C25008BF20F0010040EA030070474900F0
:1009F00040EB0000013A28BFB0F5000FEDD2B0FA8D
:100A000080FCACF1080CB2EB0C0200FA0CF0AABFAF
:100A100000EBC25052421843BCBFD040184370474D
:100A200092F0000F81F4000106BF80F40000013253
:100A3000013BB5E74FEA41037FEA226C18BF7FEA2A
:100A4000236C21D092EA030F04D092F0000F08BF6C
:100A50000846704790EA010F1CBF0020704712F053
:100A60007F4F04D1400028BF40F00040704712F192
:100A700000723CBF00F50000704700F0004343F0F7
:100A8000FE4040F4000070477FEA226216BF08462D
:100A90007FEA23630146420206BF5FEA412390EAF0
:100AA000010F40F4800070474FF0000304E000BFE6
:100AB00010F0004348BF40425FEA000C08BF704797
:100AC00043F0964301464FF000001CE050EA01025B
:100AD00008BF70474FF000030AE000BF50EA010270
:100AE00008BF704711F0004302D5404261EB41015D
:100AF0005FEA010C02BF84460146002043F0B64382
:100B000008BFA3F18053A3F50003BCFA8CF2083AA6
:100B1000A3EBC25310DB01FA02FC634400FA02FCAF
:100B2000C2F12002BCF1004F20FA02F243EB0200B6
:100B300008BF20F00100704702F1200201FA02FC18
:100B4000C2F1200250EA4C0021FA02F243EB02000B
:100B500008BF20EADC7070474FF0FF0C1CEAD0524F
:100B60001EBF1CEAD15392EA0C0F93EA0C0F6FD010
:100B70001A4480EA010C400218BF5FEA41211ED0EE
:100B80004FF0006343EA501043EA5111A0FB0131DA
:100B90000CF00040B1F5000F3EBF490041EAD371AF
:100BA0005B0040EA010062F17F02FD2A1DD8B3F12B
:100BB000004F40EBC25008BF20F00100704790F09A
:100BC000000F0CF0004C08BF49024CEA502040EAEC
:100BD00051207F3AC2BFD2F1FF0340EAC2507047B2
:100BE00040F400004FF00003013A5DDC12F1190FF0
:100BF000DCBF00F000407047C2F10002410021FA62
:100C000002F1C2F1200200FA02FC5FEA310040F179
:100C1000000053EA4C0308BF20EADC70704792F0F2
:100C2000000F00F0004C02BF400010F4000F013A2A
:100C3000F9D040EA0C0093F0000F01F0004C02BF25
:100C4000490011F4000F013BF9D041EA0C018FE794
:100C50000CEAD15392EA0C0F18BF93EA0C0F0AD09A
:100C600030F0004C18BF31F0004CD8D180EA0100C0
:100C700000F00040704790F0000F17BF90F0004F59
:100C8000084691F0000F91F0004F14D092EA0C0F3B
:100C900001D142020FD193EA0C0F03D14B0218BFCE
:100CA000084608D180EA010000F0004040F0FE4014
:100CB00040F40000704740F0FE4040F440007047B0
:100CC0004FF0FF0C1CEAD0521EBF1CEAD15392EA2F
:100CD0000C0F93EA0C0F69D0A2EB030280EA010C1F
:100CE00049024FEA402037D04FF0805343EA1111B8
:100CF00043EA10130CF000408B4238BF5B0042F116
:100D00007D024FF4000C8B4224BF5B1A40EA0C00BA
:100D1000B3EB510F24BFA3EB510340EA5C00B3EBEC
:100D2000910F24BFA3EB910340EA9C00B3EBD10FDA
:100D300024BFA3EBD10340EADC001B0118BF5FEA2C
:100D40001C1CE0D1FD2A3FF650AF8B4240EBC25055
:100D500008BF20F0010070470CF0004C4CEA502016
:100D60007F32C2BFD2F1FF0340EAC250704740F465
:100D700000004FF00003013A37E792F0000F00F057
:100D8000004C02BF400010F4000F013AF9D040EAD5
:100D90000C0093F0000F01F0004C02BF490011F469
:100DA000000F013BF9D041EA0C0195E70CEAD15361
:100DB00092EA0C0F08D142027FF47DAF93EA0C0F48
:100DC0007FF470AF084676E793EA0C0F04D14B022C
:100DD0003FF44CAF08466EE730F0004C18BF31F0DE
:100DE000004CCAD130F000427FF45CAF31F00043D8
:100DF0007FF43CAF5FE700BF4FF0FF3C06E000BF71
:100E00004FF0010C02E000BF4FF0010C4DF804CD93
:100E10004FEA40024FEA41037FEA226C18BF7FEAA3
:100E2000236C11D001B052EA530C18BF90EA010FA5
:100E300058BFB2EB030088BFC81738BF6FEAE17034
:100E400018BF40F0010070477FEA226C02D15FEAD0
:100E5000402C05D17FEA236CE4D15FEA412CE1D03C
:100E60005DF8040B704700BF844608466146FFE703
:100E70000FB5FFF7C9FF002848BF10F1000F0FBDE5
:100E80004DF808EDFFF7F4FF0CBF012000205DF8DE
:100E900008FB00BF4DF808EDFFF7EAFF34BF012063
:100EA00000205DF808FB00BF4DF808EDFFF7E0FFFC
:100EB00094BF012000205DF808FB00BF4DF808ED4D
:100EC000FFF7D2FF94BF012000205DF808FB00BFB0
:100ED0004DF808EDFFF7C8FF34BF012000205DF892
:100EE00008FB00BF4FEA4002B2F1FE4F0FD34FF0B4
:100EF0009E03B3EB12620DD94FEA002343F0004387
:100F000010F0004F23FA02F018BF404270474FF034
:100F10000000704712F1610F01D1420205D110F0BB
:100F2000004008BF6FF0004070474FF0000070476E
:100F30007BB972B90029BEBF00204FF0004106E026
:100F400008BF00281CBF6FF000414FF0FF3000F0D9
:100F500077B8ADF1080C6DE904CE002909DB002B50
:100F60001ADB10F034FCDDF804E0DDE9022304B004
:100F70007047404261EB4101002B1BDB10F027FC66
:100F8000DDF804E0DDE9022304B0404261EB4101F9
:100F9000524263EB43037047524263EB430310F04A
:100FA00016FCDDF804E0DDE9022304B0404261EB09
:100FB00041017047524263EB430310F008FCDDF837
:100FC00004E0DDE9022304B0524263EB43037047BF
:100FD00053B94AB9002908BF00281CBF4FF0FF31A0
:100FE0004FF0FF3000F02CB8ADF1080C6DE904CEE5
:100FF00010F0EDFBDDF804E0DDE9022304B07047FA
:10100000D0B5FFF7E1F90C4B002206460F46FFF77B
:1010100033FA00F017F80446FFF7B4F9074B002243
:10102000FFF72AFA02460B4630463946FFF76CF8BE
:1010300000F008F82146D0BD0000F03D0000F0416E
:10104000704700BF4A0011D212F5001211D20DD51F
:101050006FF47873B3EB62520ED44FEAC12343F0BE
:10106000004343EA505323FA02F070474FF0000068
:10107000704750EA013002D14FF0FF3070474FF017
:10108000000070471FB51A4C207A8DF80100E079F6
:101090008DF80000A079ADF804006079ADF8020089
:1010A000684609F073FC08B1AD211CE0E0680290CD
:1010B00002A809F081FC08B1B12114E00D480068D4
:1010C000039003A813F0D2FB08B1B5210BE0A07E7A
:1010D00009F0A4FC08B1BE2105E0607E09F098FC8F
:1010E000002803D0BF21032000F06CFA1FBD0000D0
:1010F000900E0020AC1600003EB504460068C01DEE
:1011000020F00700206000200090019002900878F5
:101110008DF8010048788DF8020088788DF803007A
:10112000C8788DF8040008798DF80500C87D8DF821
:101130000600487F8DF80800887F8DF80900C87F79
:101140008DF80A0091F820008DF80B0008484079CE
:1011500010B108798DF807000AB1002000E020687E
:10116000694601F0F7F82168084420603EBD0000A0
:1011700040000020F8B50446887816460D4688B130
:101180002068C01C20F003002060E97DEA786B8AAB
:101190001144CAB2A97806B1002001F0CFFB216842
:1011A00008442060654FF87898B1287C88B1387978
:1011B00008B1FF2200E025222068C01C20F00300B7
:1011C0002060297C06B1002001F040FC2168084421
:1011D0002060287D90B1A87818B9F87870B1287C83
:1011E00060B12068C01D20F007002060297D06B195
:1011F000002003F0EDFF2168084420605048036898
:1012000073B1287960B12068C01C20F00300206011
:101210006A7D297906B1002098472168084420603A
:10122000484802686AB1A87D58B12068C01C20F007
:1012300003002060A97D06B1002090472168084482
:1012400020604148D0F800C0BCF1000F11D0E87D0B
:1012500078B12068C01C20F003002060A97E0091B6
:101260006B7E2A7EE97D06B10020E04721680844B4
:101270002060787978B1287968B12068C01C20F0A6
:10128000030020602A7F297906B1002001F0FCFBD1
:1012900021680844206095F82100B8B12068C01D7D
:1012A00020F0070020605EB195F821105FF000008B
:1012B0004FF4887211F04BF821680844206009E06F
:1012C0000CF0EAFA95F821102068F1E716B9002031
:1012D0000CF0E2FA95F8220038B32068C01D20F027
:1012E0000700206095F8221006B10020FF2211F0BF
:1012F0002EF8276833463844C01C20F0030040F025
:1013000004022260A97F012001F0F0FB2168002E79
:101310000844206010D138460CF0C4FA95F8220039
:10132000BDE8F840FB210CF0C3BA002E04D1BDE8A3
:10133000F84000200CF0B6BAF8BD000040000020D4
:101340004C000020540000205000002010B528B1AF
:101350001422044914F09BFB002010BD6FF015000F
:1013600010BD0000D41600002DE9F0416FF02C06EE
:10137000002871D1474C607810B1B011BDE8F08100
:10138000002976D06FF01500002AF7D0424B1129C2
:101390009D7879D2DFE801F078090C0F1F224A52BC
:1013A00069285558642D323F45001078187060E068
:1013B000107858705DE091780029DFD0D17800294D
:1013C000DCD011781B29D9D351781B29D6D31068CA
:1013D000C3F805004DE01068D8604AE01178DA786B
:1013E0009142CBD3997044E01178A942C6D8D97004
:1013F0003FE01178A942C1D8D9753AE011780029A7
:10140000BCD05178F929B9D80029B7D010881883F1
:10141000907898762DE01078D87610780AF064FAF3
:1014200027E011780029A9D0197722E0E17811B1DD
:1014300011780229A2D3107818741AE01088588203
:1014400017E01078187114E061790029117804D040
:10145000002993D059750CE016E002298ED3F9E7E4
:10146000117808298AD8997503E01188FF2985D851
:10147000197501220849002010F0F9FAB0F5803FF3
:1014800004DB6FF00B0079E7304677E70121A170AC
:1014900074E7000040000020900E0020054910B5C0
:1014A000497811B14FF0FF3010BD09F0BDFA0020AE
:1014B00010BD00004000002010B5074C607820B13E
:1014C00009F072FD20780FF0C1FF01F06DFB01F013
:1014D00045FC0020607010BD4000002070B50C4637
:1014E000050002D00CB1600702D06FF0150070BD8E
:1014F00000F016F9A8B128460FF06EFF0A4D002241
:101500000A492870204610F0B2FA14F07EF8002143
:10151000287809F025FDFFF7B5FD0120687000204F
:1015200070BD4FF0FF3070BD40000020900E0020D5
:1015300030B589B005000CD00FF0F6FE4FF0FF3447
:1015400020B10FF089FDB0F5FA7F05D9204609B02A
:1015500030BD6FF01500FAE7154C1648A56000F095
:1015600099FD00206070A070E070207160710146EC
:101570002422684614F005FB24220F49684614F023
:1015800086FA242269460D4814F081FAEFF310849C
:1015900072B601F017FB0A4801F0ECFB18B1CB2141
:1015A000032000F00FF804B962B60020CFE7000076
:1015B0004000002085100000B0160000900E0020B2
:1015C0004D1700000EB572B6154A9568DDB10022C0
:1015D00003466E460A2403E0B0FBF4F0521CD2B27C
:1015E0000028F9D1B0540AE0D8B2B0FBF4F7B3FB4D
:1015F000F4F304FB1700521ED2B23030B054002A6C
:10160000F2D13046A847BFF34F8F06480168064A1B
:1016100001F4E06111430160BFF34F8F00BFFDE7AC
:10162000400000200CED00E00400FA05064810B56B
:1016300081784078014302D04FF0FF3010BD09F0AF
:10164000C5FC002010BD000040000020064810B579
:1016500081784078014302D04FF0FF3010BD13F085
:1016600016FA002010BD000040000020064810B50A
:1016700081784078014302D04FF0FF3010BD13F065
:1016800009FA002010BD000040000020064810B5F7
:1016900081784078014302D04FF0FF3010BD09F04F
:1016A000A7FC002010BD0000400000200100000049
:1016B00001010100001B1B03020000004C1D000083
:1016C00003001F00080200000149000001000000A3
:1016D00000000000E07E2EC15E0585234615DCFA81
:1016E0008E297D701093A5FC054A10B5526812B181
:1016F000BDE81040104792210420FFF763FF00006F
:10170000B40E0020054A10B5926812B1BDE8104031
:10171000104798210420FFF755FF0000B40E002069
:101720000548016829B1416819B1806808B10120F4
:101730007047002070470000B40E002002490DC819
:1017400081E80D0000207047B40E0020F8B5124C5F
:101750000026256811E00098022802D003280CD149
:1017600006E0206810B10020266005E028210CE08A
:10177000206868B101202660A847684601F0C0FAD9
:101780000028E8D0052805D035210420FFF71AFFEE
:101790002D21FAE7F8BD0000580000202DE9FC419A
:1017A000334E0546001D06F584773060387858B111
:1017B000BA783C46791C2846921C14F068F900203F
:1017C00020700420BDE8FC81294802F089FE04460F
:1017D000022804D0042C07D0082C42D045E024492C
:1017E000284610F079F940E030780A2802D02628FF
:1017F00015D10FE005213E2000F03EF878B9B08801
:10180000ADF8000001A9684610F0ABFA0028CDD071
:10181000A8210CE01A213E2000F02EF850B1144906
:10182000284600F04DF8B0F5817F11D3C72108207C
:10183000FFF7C8FE0F4801A900680090F088ADF8D6
:101840000000684610F0A1FA0028AFD0BA21EEE7F8
:101850000028ABD0A978287800F00EF80028A5D091
:1018600003E00349284610F065F92046AAE7000086
:10187000C00E0020BC18000070B50C46054600F0F4
:10188000B3FB002802D03E2D01D0012070BD122CE8
:1018900006D106480178022902D040780028F5D008
:1018A0002046BDE8704000F0B1BB00000C040020F1
:1018B00001494870704700000C040020000011002E
:1018C0002DE9F84F044691F800C00D4600203E2651
:1018D000A21CE31CFF274FF010094FF0030E4FF03E
:1018E0001A0B04F10D014FF0120ABCF1320F75D240
:1018F000DFE80CF074334B4E52FD74ADB6C4FEFB02
:10190000FAF9F8F7F61974757492F5F4F3F274F1C4
:1019100074F0EFEEED74ECEBEAE9E8E7E6E5E4E31A
:10192000E2E1E0DF74DE0E2020706879E070B5F847
:101930000500000A20712879A070B5F805008338E9
:10194000B0F5005F03D03621C720FFF73BFE72469B
:10195000E91D601D14F09BF8FEE20C202070287930
:10196000A0706879E070B5F80500000A2071E87988
:101970006071287AA0712889000AE071A87A207223
:101980006889000A607208207FE284F8009001E014
:1019900084F800B028793AE126700220A07015F88A
:1019A000040FE070A87A207168786071D5F80200A1
:1019B000C4F80600E8886081287A20732E7A1F2EEA
:1019C00000D31F260846324605F10B0114F05FF8DC
:1019D0000D36697AA155761EF0B254E258E22670AF
:1019E0000B20A0702879E07068792071A879607167
:1019F000D5F80700C4F80600B5F80B006081687BD5
:101A00002073D5F80E00C4F80D00688AA4F8110000
:101A1000287DE074504638E2292000F0F7FA48B1FA
:101A200026702920A0702122291DE01C14F02FF817
:101A300022202AE20A2000F0E9FA0028294620465E
:101A400002D010F0D7F81EE210F0ABF81BE22670BF
:101A50001420A0702879E070A888000A207157E14E
:101A60003E2020700420107068681860A8685860D4
:101A7000A8891881A87B98720C2006E2267084F849
:101A800002E02879E070A8792071E888000A607186
:101A9000287AA0712889000AE071A87A20726889E2
:101AA000000A6072287BA072A889000AE07245E2F1
:101AB00054E227E208E233E242E2FAE1EAE1C5E178
:101AC000B9E1EFE1A5E14EE124E11BE10DE1F5E033
:101AD000F1E0E9E0BFE0ADE097E09BE042E03EE00E
:101AE00053E04DE031E025E018E015E000E055E07E
:101AF00026700520A0702879E070A888000A20715F
:101B0000D5F80600C4F80500D5F80A00C4F80900A5
:101B1000E889A4F80D0036E2112037E00520207096
:101B20002879A0706879E070B5F80500000A207186
:101B3000E879C6E1082020702879A070A879E070C3
:101B4000E888000A2071287ABBE1302020702879CB
:101B5000A070A879E070E888000A2071A0E12670E2
:101B60000720B3E126700C20A0702879E070A879D6
:101B70002071E888000A6071287AA071687A56E0BE
:101B8000291D204600F002FA7DE1572020702879B7
:101B9000A070A888000AE070022076E126700D226D
:101BA000A2702A79E270EA89A2806A79A271D5F8D6
:101BB0000620C4F807206A89A4F80B202A7C204656
:101BC0006273291D6A7C82738A7BC2738A7E027467
:101BD0004A7A4274B1F81120ADF800204282CA7CE2
:101BE00002754A69C0F815200A8BA0F819200A7AF4
:101BF000C2760D7AE52D00D3E5252A461C301C312E
:101C000013F045FF1A35E8B23DE126701120A070AF
:101C100001203AE1267084F802A02879E070687902
:101C20002071A8796071E888000AA071287AE071B3
:101C300006202AE12670242000F0E8F908B12420CB
:101C40005DE00E20A0700F263246291DE01C13F027
:101C50001EFF701C17E12670252000F0D7F940B157
:101C60002520A0700A263246291DE01C13F00FFF24
:101C70000FE00F20A070A988A4F80310A979617162
:101C8000E979A171297AE171297B2172697B6172FD
:101C90000726A0196A7B05F10E01C01C13F0F7FEA0
:101CA000687B761C3044EEE0267084F80290A888A9
:101CB000A4F80300F4E02670202025E126702120FE
:101CC000A0702879E07068792071B5F80500000AE5
:101CD0006071E879A071287AE071687A2072A87A38
:101CE0006072E87AA0720920CFE02670262000F00A
:101CF0008DF918B12620A0701726A5E71820A0702E
:101D00001326A1E726702720A070A888A4F8030056
:101D1000A879D6E026702820A0706968002604F112
:101D20000308C4F80310304615E000BF08EB0600B6
:101D3000A919071D51F8080F38608888B8807A798A
:101D4000B81D891D13F0A3FE7879B61D304486B204
:101D500009F10100C0B298F8031081464945E5D861
:101D6000761DB0B28FE026701920A0702879E0703F
:101D700068792071B5F80500000A6071E888000AEA
:101D8000A071D5F80600000CE071D5F80600000E31
:101D90002072B5F80900000A6072D5F80900000C3D
:101DA000A072D5F80900000EE072A889000A20731D
:101DB000E868000C6073E868000EA073B5F80F00C7
:101DC000000AE073D5F80F00000C2074D5F80F005E
:101DD000000E6074E87CA074287DE074687D207536
:101DE000A87D6075E87DA075287EE075687E207608
:101DF000A87E6076688B000AA076287FE076A88BA4
:101E0000000A2077A87F6077E88B000AA0771D2062
:101E10003BE0267084F802B02879E070A888000AB8
:101E20002071A8796071E888000AA071287AE071B1
:101E3000687A207290E018463E23237022231370A4
:101E4000291D132213F023FE14201EE03E202070D3
:101E50001D2010701E462D1D0E222946304613F0FF
:101E600016FE0021084609E005EB400206EB4003A0
:101E7000891CD289401CDA8189B2C0B26A7B824255
:101E8000F2D80F3188B2002802D06070801C80B276
:101E9000BDE8F88F3E2020701E201070A8881880A2
:101EA0000320F2E73E2020701F2010706868186041
:101EB00034E02770A120A0702879E0706879207143
:101EC000002060710420E0E72770A220A07028792C
:101ED000E070A888000A2071A8796071E888000A7B
:101EE000A071287AE0712889000A2072A87A6072AD
:101EF0006889000AA072287BE072A889000A207312
:101F00000B20C2E72770A320A0702879E070A88872
:101F1000000A2071A8796071E879A0710520B4E702
:101F200026701320A0702879E07068792071D5F8A8
:101F30000600C4F805006889A4F809000A20A4E78F
:101F40002770A420A0702879E070A888000A20716A
:101F5000A8796071E879A071072096E72770802042
:101F6000A070A988A4F80310E988A4F80510297ABC
:101F7000E17169892181A9896181E989A181297C2E
:101F800001F00101A1730D207FE7000070B50A7810
:101F900082703AB3012A25D81323037000230AE084
:101FA00001EB430400EB4305A678EE706488240A35
:101FB0005B1C2C71DBB29342F2D300230BE000BF19
:101FC00001EB430500EB43042E796671AD882D0AC1
:101FD0005B1CA571DBB29342F2D3012101EB8200BD
:101FE000C0B270BD002070BD402803D2401EC1B2F7
:101FF000054805E0FF2805D04038C1B20248083046
:102000000FF02CBE012070475C000020401EC1B2C2
:1020100001480FF023BE00006C0000200249026856
:102020000A614068486170475C0000200549026809
:102030000A60406842F48C220A60034A10434860F8
:10204000704700005C000020F807400207484FF08E
:10205000FF3100220160C90C416000F108011F201E
:102060000A604A600831C1E9000270475C00002044
:1020700010B5FFF7EBFF0020FFF71AFC12F000FD90
:1020800004460348006800B18047204610BD0000A8
:1020900074000020014908607047000074000020AF
:1020A0002DE9F04104464FF08050D0F8A0701F4D4C
:1020B0001E4E103D10220021204613F062FD10221A
:1020C000002104F1100013F05CFD2868401C08D1C9
:1020D0006868401C05D1A868401C02D1E868401C13
:1020E00007D028686A68A968EB6820616261A1610D
:1020F000E361002000F006FF8743F80713D1306842
:10210000401C08D17068401C05D1B068401C02D149
:10211000F068401C07D032687068B168F3682260CC
:102120006060A160E3600020BDE8F08190000010D5
:1021300038B54FF0805104462248D1F8A010214D07
:102140000268143D521C04D14268D2431204120C9E
:1021500035D0C90733D001684068ADF80000C4F835
:102160000110BDF80000A4F80500A07940F0C000FF
:10217000A0712868401C0CD06868401C09D0A86871
:10218000401C06D0E868401C03D0002000F0BAFED6
:1021900040B110220021E01D13F0F3FC012020705B
:1021A000002038BD2A686968A868EB68C4F8072071
:1021B000C4F80B10C4F80F00C4F81330EEE7002089
:1021C000EDE70000A4000010022101804180002101
:1021D0000171E021417142F67E61C1800149816057
:1021E00000207047C15E05852DE9F0418F79DDF84B
:1021F00018E0082F01D9DB212CE0DFF8A4C05CF83F
:1022000020400CB1DC2125E0CC79002C45D06400C5
:102210001D680A346619022F01D93D4601E04FF0CE
:1022200002052E44A6F1010601D93D4601E04FF01A
:102230000205A5F1010526EA05068D883D44A5F1B4
:102240000105A7F1010725EA07054FF6FF77BD4213
:1022500003D3E7211720FFF7B5F9BEF1000F18D11E
:10226000341B4CF820402580C879A0700120E07014
:10227000227108684FF6F072000CE0800888208117
:10228000002003E004EB4007401C7A81CF798742AD
:10229000F8D8C87900FB05601860BDE8F08100003F
:1022A000CC100020034951F82000002800D080788D
:1022B00070470000CC10002070B50546194850F852
:1022C000214064B3B5F5706F04D340F22521172087
:1022D000FFF778F9294620460FF08EFF0146FF28C8
:1022E00004D02046BDE870400FF0ADBFA078B5FB2C
:1022F000F0F100FB1150C6B232464FF6F0712046A5
:102300000FF08EFF0246FF2809D0B24201D0002014
:10231000E07029462046BDE870400FF067BF0020FE
:1023200070BD0000CC1000200246094810B550F8DE
:102330002140114620460FF05FFF0146FF2804D0E0
:102340002046BDE810400FF07EBF002010BD000009
:10235000CC1000202DE9F0410C46064689786078C3
:1023600086B00144FF2902D94FF482710CE0217834
:10237000814202D94FF4847106E004963EB10025F3
:10238000700706D040F219111720FFF71BF901253D
:10239000F6E74FF000082C224146664813F0F1FBA7
:1023A000654F6378D7E90002B96863F31F62039150
:1023B0000095CDE9010204AB424601A90020FFF7D8
:1023C00013FFD7E90302A37894F80180796963F3D6
:1023D0001F6203910095CDE9010204AB424601A9B9
:1023E0000120FFF701FFA178E37801EB080000F07E
:1023F000FF08D7E90602396A63F31F62039100956B
:10240000CDE9010204AB002201A90220FFF7ECFE96
:10241000D7E909022379F96A63F31F6203910095F2
:10242000CDE9010204AB002201A90320FFF7DCFE85
:10243000D7E90C026379B96B63F31F6203910095CE
:10244000CDE9010204AB002201A90420FFF7CCFE74
:10245000D7E90F10A3797A6C63F31F600392CDE97B
:102460000110A07918B109F035FAADF8080004ABF5
:10247000002201A905200095FFF7B6FED7E912104A
:10248000E3793A6D63F31F60CDE90202CDE90051B3
:1024900004AB002201A90620FFF7A6FED7E915101C
:1024A000237AFA6D63F31F60CDE90202CDE9005192
:1024B00004AB002201A90720FFF796FED7E9181008
:1024C000637ABA6E63F31F60CDE90202CDE9005171
:1024D00004AB424601A90820FFF786FE617AA37A81
:1024E00001EB080000F0FF08D7E91C01FA6E63F366
:1024F0001F6003910095CDE9012004AB002201A9E2
:102500000920FFF771FE7837E37A97E8070063F355
:102510001F610DF1040C00958CE8070004AB4246E6
:1025200001A90A20FFF760FE049806B0801BBDE8F1
:10253000F0810000CC1000202826000010B50446D1
:1025400080790E4951F82000A8B14FF6F073E17977
:10255000827891420FD24A1CE27100EB410252890B
:102560009A42F4D000EB41025289A2800FF06BFE38
:102570002060002010BD052010BD0000CC10002000
:102580002DE9F04107464FF6FF703880124850F8A9
:102590002140ECB1A5782079B0FBF5F105FB1106DF
:1025A00032464FF6F07120460FF03AFE0246FF2801
:1025B0000ED0A81B1044B0FBF5F105FB11002179EA
:1025C000084481B239802046BDE8F0410FF00EBECC
:1025D0000020BDE8F0810000CC1000202DE9F04182
:1025E0000746104850F82150394628460FF004FE9F
:1025F0000446FF2812D0D5F8060021464FEA30469F
:1026000028460FF020FE01463846B04705EB44014E
:102610004FF6F07048810020BDE8F08143F20200DF
:10262000FAE70000CC100020973C01008803080066
:1026300000000000273C0100180408000000000012
:102640004B33010060010800000000006F500100E2
:102650009000080000000000F5B80000A800080085
:10266000000000007D55010000000800000000008F
:10267000B755010080000800000000009F3E0100E7
:102680007000080000000000273D01006001080004
:1026900000000000C13F0100E80008000000000049
:1026A0000540010098000800000000002DE9FF4FE0
:1026B000244C064681B020689A46934658B1017A68
:1026C000B14203D9406850F8260040B143F20200FD
:1026D00005B0BDE8F08FA5211820FEF773FF19465D
:1026E00002980FF0FFFD804658460E990FF0F0FD5E
:1026F000054608EB0500001D87B22068A146394653
:1027000000680FF00EFD04001AD06780258029466E
:10271000201D0E9D07465A46092300950FF077FCB1
:102720002088414638440A23029ACDF800A00FF0D1
:102730006EFCD9F80000406840F826400020C7E74A
:102740000420C5E77800002070B5144C23688BB1D5
:10275000197A814212D95A6852F8201071B10025B5
:1027600042F820504A8818680FF033FD2168002095
:102770000A7A0CE0C6211820FEF724FF43F202007B
:1027800070BD4B6853F8203033B9401CC0B2824250
:10279000F7D808680FF012FD002070BD7800002007
:1027A0002DE9F0410D46040090464FF0000606D09A
:1027B0000027A00705D086211820FEF703FF012778
:1027C000F7E7CDB1114600200FF0DCFC0C3000EB38
:1027D00085068FB90A4F04F10C00AA003C602572EF
:1027E000606000EB850020600021606813F0C9F98B
:1027F000414638680FF0C6FC3046BDE8F081000065
:1028000078000020094910B502460968002049B146
:102810000B7A934205D9496851F82210002900D05B
:10282000081D10BDEC211820FEF7CCFE780000201A
:102830000A4910B502460968002059B10B7A934243
:1028400007D9496851F82210002902D031F8040B49
:10285000084410BDFA211820FEF7B4FE78000020CD
:10286000FEB506464418C81800210DE05EB100917F
:1028700001910291E51800952560019F67609DF820
:10288000087027722C461844521E1204120CEDD107
:10289000002E11D000910191029108490A6800921E
:1028A0004A680192097A8DF808100099216001990F
:1028B00061609DF808102172FEBD0000EC5C010013
:1028C0002DE9F0411C4E456804460022A1B10120CB
:1028D000607070888308002004EB400104EB8006E0
:1028E0000A830B8400FB035171602118401C0A7598
:1028F0000428F1D3BDE8F0816270002004EB4001B0
:102900000A830A8404EB80014A602118401C0A757E
:102910000428F3D370880FF0AAFD074670880FF0E3
:10292000ADFD656020842918A1606784E560A084FE
:102930002161E784DEE700007C0000202DE9F047FC
:1029400068B100261144DFF89C80CFB2002488F8DB
:102950000070810705D04E210920FEF733FE0126C5
:10296000F0E71F2B04D84FF6FF7101EA830509E059
:102970005900FF2B0CD903F1FF02B2EB430F00D239
:1029800011468DB24FF6FC71ED1C0D4036B109E0D9
:102990007C22B2EB430FF4D37C21F2E7C8F80400A9
:1029A000A8F8025007EB870104EBC10200214FF0A9
:1029B00001090FE05EB9D8F8044001EB810300EB98
:1029C000020C04F8339004EBC303C3F804C0491CA1
:1029D0002A44C9B2B942EDD3D21D22F00700BDE8A6
:1029E000F08700007C00002070B5114800242146CB
:1029F00002780CE0456801EB810315F8333023B110
:102A000001EB810105EBC10403E0491CC9B291420D
:102A1000F0D344B10025A57001212046FFF750FFF7
:102A20002570204670BDA9210920FEF7CBFD0000CE
:102A30007C000020044810B5408884080FF01EFD7B
:102A4000844200D3204610BD7C0000202DE9F843CD
:102A50000C46074616462E2110460D4622460FF01C
:102A60001FFB804657B13846414632462B460094FC
:102A70000FF0CDFA03484760047046704046BDE849
:102A8000F8830000840000202DE9F8430F46044637
:102A90001646F72005210FF003FB4FF6FC71C01C12
:102AA00000EA0105DCB1A00703D095211920FEF74B
:102AB00089FD0D4880460460858000240DE0B8F84B
:102AC0000400D8F80010F72204FB00102946052363
:102AD00000960FF09CFA641CA4B2BC42EFD307FB33
:102AE00005F0BDE8F88300008C0000207FB50546A6
:102AF00002980E461C46410701D0800703D01F21D3
:102B00004C20FEF75FFD4FF48872294600200FF03D
:102B10001EFC06FB00F10CB1002000E002A80FF043
:102B200031FB002C03D103490D70029A4A6004B0B6
:102B300070BD00009400002070B5074C05464FF4AE
:102B40008872217800200FF002FC02462946606856
:102B5000BDE870400FF03DBB9400002030B50D493A
:102B600001204860821EC1F808230B4988600023B9
:102B7000C1F80032C1F80823084C2360251D2860E5
:102B80008860C1F80823236028600649044808606B
:102B900030BD000000E0004000F0004000F50040C3
:102BA0000000F63F08F5014010B5FFF7D7FF0FF022
:102BB0003EFD03490148086010BD00000000F63FDB
:102BC00008F5014010B5FFF7C9FF0FF030FD00F028
:102BD00087F805490348086000F0B8F8BDE81040E0
:102BE00000F0DCB80000F63F08F501402DE9F84F91
:102BF0008246384812F048FEDFF8D8B028B10126E6
:102C00000BF10100FF21017000E000264FF48075F8
:102C1000314C4FF000082F1D01216160C4F8008184
:102C2000C4F80481C4F804A52160DFF8B0901CE06A
:102C3000D9F80000C00618D50E200FF007FDEFF3FD
:102C40001080009072B603212046C4F80413294670
:102C50000FF009FD30B9394620460FF004FD08B9E0
:102C600012F0A9FE009800B962B6294620460FF07E
:102C7000FAFC28B9394620460FF0F5FC0028D7D0D9
:102C8000394620460FF0EFFC0028C5D106BB9BF863
:102C900001108DF80010009900919DF8001009B105
:102CA000012500E000250BF1010080F800800320E1
:102CB000C4F80803C4F80481C4F800810E200FF0A2
:102CC000C5FC044812F0F7FD15B11120BDE8F88FDE
:102CD0000020FBE70E04002000E0004010ED00E0C3
:102CE00010B5064812F0E3FD18B130211D20FEF7A3
:102CF00069FC02480021417010BD00000E04002054
:102D000070B511490A68EAB100231D4601244A68DA
:102D1000521C4A60092A00D34D600E7904FA06F26B
:102D20000E6816420BD0EFF3108372B60C68944312
:102D30000C6003B962B649680160002070BD5B1C7D
:102D4000092BE4D3052070BD9C000020024800211F
:102D500001604160704700009C00002010B5044CE9
:102D60002078FF2803D00EF071FBFF20207010BDEB
:102D70000000002010B5084C617809B10F2010BD8B
:102D80000EF02AFB2070FF2801D0002010BD732117
:102D90001F20FEF717FC0000000000200149002062
:102DA000487070470000002005498A8E824218BF93
:102DB0007047002081F832004FF6FF708886704718
:102DC000101200200648074A818E5288914205D190
:102DD00090F8320000281CBF002070470120704787
:102DE00010120020000400200149488070470000B4
:102DF000000400200848094A818E5288914209D176
:102E00004FF6FF71818610F8321F19B10021017051
:102E1000012070470020704710120020000400209D
:102E2000074901F1320091F83220012A04BF002045
:102E30007047012202700348008888861046704758
:102E400010120020000400200749084B8A8E5B887E
:102E50009A4206D191F83220002A1EBF016001205B
:102E6000704700207047000010120020000400206E
:102E700009498A8EA2F57F43FF3B03D00021016000
:102E80000846704791F832200349012A1ABF0160B1
:102E90000120002070470000101200200149088026
:102EA00070470000000400200A4A10B1012807D032
:102EB0000EE0507860B1D2F802000860D08804E0DB
:102EC000107828B190680860908988800120704748
:102ED0000020704710040020094A012340B1012856
:102EE00018BF704713700868906088889081704799
:102EF00053700868C2F802008888D08070470000CC
:102F000010040020064910B1012803D006E04878DB
:102F100010B903E0087808B101207047002070471D
:102F20001004002001490877704700006A0800205B
:102F30000148807870470000A40000200148C07854
:102F400070470000A400002001490120487170472B
:102F5000A40000202DE9F84FFE4DDDF828C02C78A4
:102F6000002C6CD1002A1CBF002BBCF1000F66D0D6
:102F7000C5F81CC0C5E90F014FF00009C5E90523DC
:102F800085F8059085F8049085F8029085F8019001
:102F900085F80390DFF8C083A5F80C90A5F80E9093
:102FA000D8F8040000F1A806044609F07DFB08F0FB
:102FB0006BFE94F9720009F013FC206A09F07CFEA4
:102FC000A06909F06FFE96F8330009F0AFFE98F89B
:102FD0000000002838D004200EF01EFB616941F685
:102FE0004C50814228BF962003D2012009F042FEB6
:102FF0004D2009F08DFAD8F8040090F80803002855
:1030000018BF09F075FA94F86F10012009F0B4F8B0
:10301000002808BFBDE8F88FD04809F0F7F92088EC
:10302000FFF706FC68632088FFF7ECFBA86394F8C1
:103030007B008DF800009DF8000080BB1DE040F291
:1030400045112720FEF7BEFA03200EF0E5FA61696C
:1030500041F64C50814228BF962003D2012009F04E
:1030600009FE4D2009F054FA94F86E10002009F082
:1030700083F80028D0D1BDE8F88F606F78B1B6F83A
:103080004A00B18A88420AD1B4F878100122084473
:10309000A6F84A0094F87A00616F0CF05FFF06F121
:1030A0008800DFF8BCA20FC88AE80F00D6F89800A5
:1030B000CAF81900D6F89C00CAF81D00D8F8040018
:1030C000012700F1A80290F8C51026291EBF272964
:1030D00092F81EC0BCF1260F0BD04FF008024FF043
:1030E0000203212918BF22292ED0BCF1240F52D06F
:1030F00081E098F80010002990F86E1013D090F835
:10310000E60300287BD0082918BF042970D00828BE
:1031100018BF04286CD0012918BF012857D000BF60
:103120004FF002016BE090F84203002867D00829B5
:1031300018BF04295CD0082818BF042858D00129DA
:1031400018BF012843D0EBE7BCF1240F23D098F837
:103150000010E9B390F86E1090F86E0110F0040FB3
:1031600018BF10460CD0082918BF042940D00828E1
:1031700018BF04283CD0012918BF012827D0CFE769
:1031800010F0010F18BF3846EDD110F0020F18BF34
:103190001846E8D133E098F80010C9B190F86E10E5
:1031A00090F86EC190F867000CEA000010F0040F70
:1031B00018BF104610D0082918BF042918D00828B5
:1031C00018BF042814D0012918BF0128A8D100E095
:1031D00011E04FF0010112E010F0010F18BF384666
:1031E000E9D110F0020F18BF1846E4D107E0FFE75D
:1031F0004FF0080103E090F86E100429F8D0A08F7A
:1032000011F00C0F18BF4FF429600FF0A5FB218FB0
:10321000814238BF08464F49887194F86F1011F009
:103220000C0F14BF4FF42960B4F8420096F823B095
:10323000B4F84050082937D00FF08EFBBBF1000FD7
:1032400004BF001D80B2854238BF2846C5B2DFF8F2
:1032500004B18BF8075001F087FB10B12B2D98BFFC
:103260002B252A468BF8085098F8000000B396F8F2
:103270002300E8B38AF81870D6E92001CAE90401EE
:1032800094F86F100120012908BF002343D00229C0
:1032900008BF01233FD0042908BF03233BD00829DE
:1032A00008BF022337D027E004210FF055FBC5E704
:1032B00096F8220058B38AF81870D6E91E01CAE9B8
:1032C0000401616941F64C5081422CBF002004206A
:1032D00094F86E10012908BF002312D0022908BFFC
:1032E00001230ED0042908BF03230AD0082900E0D7
:1032F00016E008BF022304D040F221410620FEF769
:1033000061F9FB221649CDF8009008F0C1FB0120BD
:1033100000F020FC07E01249CDF8009008F0B8FB5F
:10332000012000F0B9FB0F480068032818BF0B28E4
:103330001ED0CAF85A90CAF85E90CAF86290AAF8ED
:1033400066900948B18A41802188018096F833103F
:1033500001710BE0A4000020E00000205C3D0000B3
:1033600010080020501500406A080020BDE8F88FC2
:1033700040F202214FF02700FEF724F92DE9F04139
:10338000204D06460F461E48696A82B0406891F893
:10339000018000F1A80416F0020F15D0A86A48B306
:1033A0006A89D21C12F073FBA86A686201AA694696
:1033B000A86B0EF0CEFD00980EF0C9FD386001221A
:1033C0004146A86B0EF07AFD16F0010F04BF02B063
:1033D000BDE8F081D4E92002411C42F10000C4E9BB
:1033E0002010207E01280CBF00200120207602B092
:1033F000BDE8F08140F25C412720FEF7E3F80000D1
:10340000E0000020A40000200248C089C0F3802012
:1034100070470000A400002038B51A48017800F178
:103420003C0449B12178007849B102280ED040F21D
:103430001E212720FEF7C6F800F08EFA0BE00128C7
:1034400009D040F21A212720FEF7BCF86068D0F8B6
:10345000200308F0F1FF606890F87B108DF80010F1
:103460009DF80010002918BF38BD416F002908BF22
:1034700038BD90F87A00BDE83840002211460CF0C3
:103480006DBD0000A40000200020487031200870AD
:103490000548826E4A60C26E8A60026FCA60B0F8E8
:1034A000740008827047000010080020012984BFC2
:1034B0000120704770B51B4C0546A169884700285C
:1034C0002CD0207950BB04F13C000178002908BFC2
:1034D000012D01D021B31DBB1348027812F0100F4B
:1034E00006D1E06A007810F0100F08BF012001D06B
:1034F0004FF00000A36A23B9638913B112F0100FD3
:103500000CD000291CBF217B11F0020F03D0216ACF
:10351000C978022904D0A189084301D0012070BDD7
:10352000002070BDA4000020B40000202DE9F34F5E
:10353000DFF8008383468BB0D8F804004FF0000A10
:10354000A8F13C0400F1A8078DF814A0CDF818A04C
:1035500020785646D146022804D040F2DF41272089
:10356000FEF730F8A07B10F0400F07D140206269D1
:1035700000219047E08940F04000E08197F8230067
:10358000BBF1000F00F0D380A0B108F0BBFB08F046
:1035900095FB78B9606A417861B10078397EC0F3F3
:1035A000C000884206D10120607000F0D5F90DB04E
:1035B000BDE8F08F606A41786181002908BFA6628A
:1035C00003D0A06B0EF07AFDA062E08940F4807019
:1035D000E081606AF97D0078C0F38000884208BF0E
:1035E0004FF0010A47D0D8F8040006A900F1A80559
:1035F00090F8BE0000283AD002280BD1606B0EF084
:1036000035FC00284BD0D5E91E01401C41F10001DA
:10361000C5E91E01AE7598F8000000281CBFA87C03
:10362000002809D0AE74A289314642F01002A2816E
:1036300062694FF010009047687C90B16E74FFF79C
:10364000D9FB90B3A289082042F00802A2816269E6
:1036500000219047D5E91E02411C42F10000C5E956
:103660001E10E87D01280EBFEE750120E875E08987
:1036700040F48060E081606A397E0078C0F3C00069
:10368000884222D101F070F9B8B1616AE0790A7814
:1036900002F00302012A18BF022A0BD00DE040F20B
:1036A000DA314FF02700FDF78DFF40F2F13127208E
:1036B000FDF788FF4978814203D805A800F090F90A
:1036C00003E0207940F01000207197F822000028D4
:1036D0003FD098F80010D8F8040000290CBF012250
:1036E000002255490A76D7E91E23C1E9042341691E
:1036F00041F64C52914234BF4FF0040C4FF0000C95
:1037000090F86E00012808BF00231CD0022808BFD3
:10371000012318D0042808BF032314D0082808BFA9
:10372000022310D040F221410620FDF74BFF002874
:1037300018BF08F0E1FAA078401CA070E08940F4BE
:103740000070E081C1E7FB223B496046009608F02B
:103750009FF90C98002520B9A1780120FFF7A6FE5B
:1037600018B109F08DFA012502E0002000F0F2F90D
:103770009DF81400C0B1616A48780090A06AD0B189
:103780006289D21C12F083F9A06A606209AA08A9B2
:10379000A06B0EF0DEFB08980EF0D9FB81460122EB
:1037A000A06B00990EF08AFBB98A2448BAF1000F89
:1037B00013D029B10DE040F25C412720FDF702FF54
:1037C00098F8001029B1C188002904BF0189002997
:1037D00003D0418901F101014181BBF1000F14BF08
:1037E000C188018901F101011ABFC180A670018160
:1037F000104801F07BFB069840B10EF0A8FBD8F80A
:103800000410401C0672082200F0C2FFB9F1000F3C
:1038100008D0D8F8041009F10800067010224846B4
:1038200000F0B6FF002D18BF00F096F80DB0BDE80F
:10383000F08F0000E0000020100800206A0800203F
:103840002DE9F84F424E8346A6F13C0570688A4642
:1038500000F1A8042878012804D040F26B41272009
:10386000FDF7B0FE207C00274FF0010968B12774F6
:10387000AA89394642F00402AA816A690420904765
:103880003078002818BF84F81290296A4FF0030896
:10389000087838EA00000DD1A07DA0B9AA890220DD
:1038A00042F00202AA816A699047286A007838EAE1
:1038B000000008D0286A407800280EBF84F81690CF
:1038C0000220A07501E084F8168094F823000028F7
:1038D0002CD031782A7A706800290CBF0121002190
:1038E00081F001031B490B76D4E9203CC1E9043C7B
:1038F00090F86F004FF0010C012808BF002310D092
:10390000022808BF01230CD0042808BF032308D0D5
:10391000082808BF022304D040F221410620FDF709
:1039200051FE0C496046009708F0B2F83AEA0B00E5
:1039300004D000210846FFF7B9FD18B1BDE8F84FE3
:1039400000F00AB8BDE8F84F002000F0A5B800006C
:10395000E00000201008002010B508F099FA08F0E7
:1039600093F9114C00216269E08990470F48017F6B
:1039700099B1A0F15A01D1F85A208A66D1F85E2097
:10398000CA66D1F862200A67B1F86620A1F87420EF
:10399000022207491D3000F04FFFE269217960786B
:1039A00090470020207010BDA40000206A0800206D
:1039B00089340000084810B50078022804D040F28D
:1039C00049212720FDF7FEFD044901200873BDE8C9
:1039D0001040FFF7C1BF0000A40000206A080020CB
:1039E00070B52649264C0126496801F1A805616A8F
:1039F0000A7802F00302012A18BF022A0ED0032A15
:103A000023D12E74E289304642F40062E281A28919
:103A100042F00102A2816269904716E04978A1B1A3
:103A2000E28942F40062E281A26A002A08BF70BD06
:103A3000FB291DD86179002908BF067005D062698D
:103A4000BDE87040202000211047287E012806BFD5
:103A5000002028762E76606A4078002808BF70BD66
:103A6000D5E92010491C40F10000C5E9201070BDC7
:103A7000207940F01000207170BD0000E0000020AF
:103A8000A400002003480078002808BF7047FFF713
:103A900063BF0000A40000202DE9F041DFF8AC80F6
:103AA0000746A8F13C04D8F80450E06A606295F833
:103AB000CB10207A05F1A80600291CBF001DC0B25A
:103AC0002249002F496891F86F1002BFFF2895F82E
:103AD0006E20914201D009F0F5F896F82300A8B1C4
:103AE000206B08F089FE98F8000000280CBF012028
:103AF000002080F0010116480176D6E92012C0E9C5
:103B00000412216B606A08F05FF804E0606A08F054
:103B100073FE08F0B9F83FB995F86F0010F00C008B
:103B200018BF282008F0BEFC686941F64C51884255
:103B300095F86E204FF0000134BF0120002009F0FD
:103B400035F802202070BDE8F0810000E000002080
:103B5000100800202DE9F04FDFF8F4A183B0AAF19E
:103B60001C09DAF804504FF000088DF80080A9F124
:103B7000200495F8CB10227A05F1A80600291CBF75
:103B8000111DCAB272490028496891F86E1002BF2F
:103B9000FF2A95F86F00884203D04FF0FF0009F02C
:103BA00091F8B07DDFF8ACB1012750B1012830D0D9
:103BB000022841D003284FD040F2FB212720FDF7F7
:103BC00001FDA079ADF80400A5F854004846FFF7C0
:103BD0003BF9A0B1A289216A42F08002A281626908
:103BE000802090477774D9F80000C0781B283CD11A
:103BF0004FF0010105F1100009F05EFB35E06A4667
:103C000001A9606B0EF0D9F9206210B196F85D1031
:103C100011B1C4F820B028E09DF8001031B9A0F827
:103C2000008080F8028001210FF0DDF9BDF804105A
:103C3000206A0FF094F918E0B5F85400ADF80400CC
:103C40006A4601A9606B0EF0B8F9206268B940F2CB
:103C5000E5212720FDF7B6FC4846FFF7F5F868B3E5
:103C6000D9F80000C0781B28C2D0206A4FF00803A2
:103C70004FF00309017801F0F7010170F27D03EACA
:103C8000C20241EA020101F0FB010170327E4FF0F5
:103C9000040303EA820241EA020101F0EF0101702C
:103CA00039EA010104BFC078022815D0606B0EF01C
:103CB0005EF9002818BFB84605D00DE040F2EE21AD
:103CC0002720FDF77FFC206A007839EA000003D046
:103CD000FFF778F880F00108206A017841EA0811BE
:103CE000017096F8221000291CBF4178002913D0DA
:103CF000206B08F081FD9AF8000000280CBF01211C
:103D0000002115480176D6E91E12C0E90412216A85
:103D1000206B07F059FF03E008F06EFD07F0B4FFD9
:103D2000686941F64C51884295F86F204FF00101C7
:103D300034BF0120002008F039FFE770206A0188B5
:103D400021828078A074277003B0BDE8F08F000056
:103D5000E00000203808002010080020B5390000DD
:103D60002D35000041380000853A00000246074822
:103D700010B5007838B10648417821B1801C07F0B1
:103D8000D9FD012010BD002010BD0000040400205A
:103D90004612002000487047D013002004494A789A
:103DA000824286BF084490F842010020704700001C
:103DB0004612002004494A78824286BF01EB001077
:103DC000823000207047000046120020054A01EBB7
:103DD000410102EB41010268C1F80A218088A1F883
:103DE0000E0170474612002004494A78824286BF7D
:103DF00001EB0010801C00207047000046120020DC
:103E000010B54FF4C5720021054811F0BAFE0548FF
:103E10000021017041704FF46171418010BD0000BC
:103E200046120020040400200B4B93F801C0844587
:103E30009CBF00207047184490F80201C0EBC000FE
:103E4000184490F852310B70D0F853111160B0F84B
:103E500057019080012070474612002010B500F0F5
:103E600039F8082808BF10BD01460B4A002092F817
:103E700001C0BCF1000F0CD9131893F802318B422A
:103E800003D1082818BF10BD03E0401CC0B2844510
:103E9000F2D8082010BD00004612002001484088DA
:103EA000704700000404002006494A78824206D97F
:103EB000084490F83A01002804BF01207047002010
:103EC000704700004612002001494870704700000A
:103ED000040400202DE9F00F204B0246002093F847
:103EE0000080B8F1000F35D90F784E788D78CC78F6
:103EF00091F804C091F805A0C0EBC001194491F8F5
:103F0000529191F853B182EA090987EA0B0BD9441F
:103F100091F854B186EA0B0BD94491F855B185EA72
:103F20000B0BD94491F856B184EA0B0BD94491F8A4
:103F300057B191F858118CEA0B0BD9448AEA010168
:103F400011EB090F04BFBDE8F00F7047401CC0B271
:103F50008045D1D8BDE8F00F0820704746120020F8
:103F600070B58CB000F110041D4616460DF1FF3CF3
:103F70005FF0080014F8012C8CF8012014F8022DD1
:103F80000CF8022F401EF5D101F1100C6C460DF11A
:103F90000F0108201CF8012C4A701CF8022D01F8B2
:103FA000022F401EF6D120460EF06AFB7EB16A1E3B
:103FB00004F130005FF0080110F8013C537010F874
:103FC000023D02F8023F491EF6D10CB070BD0898C0
:103FD0002860099868600A98A8600B98E8600CB09F
:103FE00070BD000070B501260446002571B1584A25
:103FF000012932D002297BD0032918BF70BD04F1FA
:10400000CE01BDE87040CD300EF060BD4FF483624C
:10401000002111F0B6FD84F8CD604E4AC4F8162197
:104020000722C4F81A2194F81621FE2122F0040276
:1040300084F8162184F84E117F2184F8C110464976
:1040400004F1A800C4F8B0100021C0F8B050C0E9D5
:104050000011202084F8940370BDA4F8265384F83E
:104060001B5360693D49B2FBF0F20144B1FBF0F132
:10407000C4F8EC1040F6B831A4F8F010E38BA4F8C3
:10408000F650B4F8FAC0521C0CFB00FCBCFBF0FC70
:10409000A4F8FAC040F2712C03FB0CF300EB0313FD
:1040A0005B1EB3FBF0F3A4F8F830A4F8FE202C4A12
:1040B00004F1A80100EB0212521EB2FBF0F24A64B6
:1040C0000A6C4243B2FBF0F008642631481E0EF041
:1040D000FDFC11F04CFC38B1A06900F0F9FC00289F
:1040E00004BF84F8086370BD84F8085370BDFFE70F
:1040F000D4F8EC13B4F8F2C3636904F1A800A4F88F
:10410000F650B4F8FA40B2FBF1F25C43B4FBF1F4C0
:10411000A0F8524040F271240CFB04FC01EB0C1C93
:10412000ACF1010CBCFBF1FCA0F850C0521CA0F893
:104130005620B0F84820624301EB0212521EB2FB37
:10414000F1F24264026C5A43B2FBF1F1016470BDBA
:10415000005A62022F4904C400E0FCFF7FC3C9017A
:10416000389C1C0030B40022A1F1010CBCF1000FFE
:1041700012DD431E11F0010F08BF13F8012F5C7808
:104180005FEA6C0C08D000BF13F8025F22435C7832
:104190002A43BCF1010CF7D1491E5CBF405C0243CD
:1041A000002A0CBF0120002030BC7047074991F95C
:1041B000001008441428C4BF1420704710F17F0F6A
:1041C000B4BF6FF07E0040B2704700001E040020B4
:1041D00007490978494249B208441428C4BF142049
:1041E000704710F17F0FB4BF6FF07E0040B2704790
:1041F0001E040020024A0021117051707047000017
:104200001E04002008B57F208DF80000684608F0E5
:104210003FFD002804BF9DF9000008BD9DF9001076
:1042200007484078404240B208441428C4BF1420D4
:1042300008BD10F17F0FB4BF6FF07E0040B208BD23
:104240001E040020014890F9010070471E04002060
:10425000014A1070517070471E040020014890F907
:10426000000070471E04002010B511F0D9F907496D
:1042700091F9001008441428C4BF142010BD10F197
:104280007F0FB4BF6FF07E0040B210BD1E0400204F
:10429000074908B509788DF800109DF8001000292D
:1042A0001CBF002008BD034911F009FA012008BD18
:1042B000200400202104002010B5054CFF212170AE
:1042C0000146601C11F0FBF90020207010BD0000B9
:1042D0002004002070B581EA11418BB2C47A83EAD0
:1042E0000201002201F0FF0C090A91FAA1F19CFAE7
:1042F000ACFC090E4FEA1C6C4CEA012101EB011CDD
:10430000521C0CEB0301D2B289B2032AEAD381EA30
:104310000302DFF888C000216346E2FB0C31090983
:104320006FF0240301FB0321C9B200EBD10301F0BC
:10433000070C5D78012303FA0CFC15EA0C0F1CBF77
:10434000084670BD04FB02F1090C491CC9B24FF0CC
:10435000000C00BF00EB0C04A2798A4227BF0022A8
:104360006478891AC9B20AD303FA02F52C421CBF39
:10437000491EC9B271B1521CD2B2082AF4D30CF151
:10438000010202F0FF0CBCF1050FE3D39D21462092
:10439000FDF718F902EBCC00C0B270BD53E4B36E68
:1043A00070B5044690F8300008B1252801D91220D4
:1043B00070BD002A04BF002070BD94F8250010B124
:1043C000012851D048E094F8320094F831102B4B7A
:1043D00001FB020000251A462946E0FB03210909DA
:1043E0006FF0240201FB0200C0B204EBD00284F89B
:1043F000320000F0070192F82620012303FA01F1B0
:104400000A421EBF84F83300284670BD94F830106D
:10441000B0FBF1F201FB1200401CC1B25FF00000E2
:1044200004EB000C9CF82B208A4227BF00229CF84A
:1044300026C0891AC9B20BD303FA02F61CEA060F8A
:104440001CBF491EC9B249B1521CD2B2082AF3D3CB
:10445000401CC0B20528E3D31F2070BD02EBC00092
:1044600084F83300284670BDA28A896904F12500CA
:10447000FFF730FF84F83300002070BD53E4B36EC3
:10448000417841B1C0782B2803D2044A105C88429D
:1044900001D101207047002070470000F55C010049
:1044A00010B50122C1702B293CBF064A525C06D3CD
:1044B000FF2904D040F274412A20FDF783F84270AE
:1044C00010BD0000F55C01000449897D01F0040184
:1044D00008430CBF0120002070470000F8100020A6
:1044E0002DE9F84FDFF85CA2974F83464FF00108A3
:1044F000002578682E46007A8DF80000009800901C
:104500009DF80010102908D19AF8170028B1BAF8C0
:104510001800002808BFBDE8F88F28463C6914B38E
:10452000217A8DF80010009900919DF80020D2B1F9
:104530000028F2D1B4B3207A8DF800009DF80090E5
:1045400004F1080005210170A9F102000F2880F094
:10455000EC80DFE800F02B3945EA7E7093704F4F16
:10456000707070B5D9007C68227A8DF80020009AAE
:1045700000929DF80030012B08BF0446D8D0EFF31D
:10458000108172B622687A6001B962B6217A8DF81C
:104590000010009900919DF80020002A0CBF4046B1
:1045A0003C61C5E7FFE70020BDE8F88F626832B1E3
:1045B000594620469047042060F307068CE040F2FD
:1045C000C3111020FCF7FEFF626822B15946204655
:1045D0009047064680E04FF4E6711020FCF7F2FFAA
:1045E000616811B12046884776E04FF4EB711020E6
:1045F000FCF7E8FF55480368002B6DD060684A4619
:10460000594600909847042060F307069BF8000085
:104610001E2805D01B285FD19BF8040000285BD022
:10462000009804210089FDF7D9FF18B340F2EB117F
:104630001020FCF7C7FF46480368C3B360684A46CA
:1046400059469847042060F30706B9F10D0F11D0C1
:1046500042E0626832B159462046904705F06AFE52
:1046600028B107E040F211211020FCF7ABFF05F064
:104670002DFEE0B104203D61BDE8F88F6068B8B15F
:1046800004882046FEF7D4F8B0B18BF801500F2112
:104690008BF80010ABF80640ABF808808BF804806C
:1046A00000210DF0DFFC04203D61BDE8F88F13E030
:1046B000E5211020FCF786FFC5211020FCF782FFC2
:1046C0008BF801501F208BF80000D4F80900CBF8BC
:1046D0000400042060F30706C6F30720012808BF82
:1046E00084F8089027D0EFF3108072B6217A8DF805
:1046F00000109DF80010052913BF002925723D61A7
:1047000065F30706B8B915E01248026822B160687F
:1047100030B100885946904702203D61BDE8F88FCE
:104720004FF410711020FCF74DFF40F24A21102089
:10473000FCF748FF62B616F0FF0F3FF4DAAEF0B2B6
:10474000BDE8F88FF810002028110020F0000020AC
:10475000EC000020E80000200A4910B508700A4863
:10476000002141618161C16101624162122211F047
:1047700008FA0648012100F10C021170011D416088
:10478000016010BD26040020141100202811002013
:1047900038B5037A8DF800309DF8003023B140F22F
:1047A000C2211020FCF70EFFF0B1416000F10801BA
:1047B0000A70EFF3108372B6DFF844C0C0F800C08F
:1047C000ACF104014A6852B1127A8DF80020009AC7
:1047D00000929DF80040012C08BFC1F800C00A6893
:1047E0001060086033B904E040F275211020FCF736
:1047F000E9FE62B603480078BDE838400CF00ABE16
:104800002C11002026040020094810B50021416128
:104810008161C16101624162122211F0B2F9054861
:10482000012200F10C010A70011D4160016010BD00
:10483000141100202811002038B5037A8DF80030BB
:104840009DF80030002B1CBF027238BDF0B14160F2
:1048500000F108010A70EFF3108372B6DFF844C06C
:10486000C0F800C0ACF104014A6852B1127A8DF868
:104870000020009A00929DF80040012C08BFC1F86A
:1048800000C00A681060086033B904E040F2752186
:104890001020FCF797FE62B603480078BDE8384068
:1048A0000CF0B8BD2C1100202604002030B450813B
:1048B000B1F808C0A2F80CC08B89D3814889108256
:1048C000CC895482CD8DA54204BF4C8D844206D143
:1048D0000C8E9C4202BF8B8D6345002301D04FF0AC
:1048E000010313754885508AC88590898885D089C9
:1048F000088630BC014910460EF08DBB754900009A
:1049000030B490F86E508C88B1F808C015F00C0FD8
:104910001BD000BFB4F5296F98BF4FF4296490F8FD
:104920006F5015F00C0F17D0BCF5296F98BF4FF4DE
:10493000296C4A88C988A0F84C20A0F85010A0F82B
:104940004E40A0F852C030BC7047002B1CBF1578F9
:1049500015F00C0FDED1E2E7002B1CBF527812F0ED
:104960000C0FE1D1E5E70000014800787047000036
:104970002704002038B5A0F11805007D0C4600F092
:104980000100FFF7A1FD0021002818BF00910ED102
:10499000617016202070D5F82200D5F82610D5F8C1
:1049A0002A2060600348A160E26040680090BDF882
:1049B000000038BDC84A000070B5B0F838C012F029
:1049C0000C0F0CF1040C1FFA8CFC4FF434751CBF57
:1049D00005EB8C1C1FFA8CFC0FD1012A04BF4FEA97
:1049E000CC0C0CF1500C06D0022A04BF4FEA8C0C00
:1049F0000CF12C0C60D11FFA8CFC12F00C0F18BFBC
:104A00004FF4296406D1B0F84E60B0F84A40A6428F
:104A100038BF3446644538BFA446B0F84040241D32
:104A2000A4B213F00C0F1CBF05EB8414A4B20AD17E
:104A3000012B04BFE400503404D0022B04BFA400B7
:104A40002C3439D1A4B213F00C0F14BF4FF42960E9
:104A5000B0F84200A04238BF04461A48007898B126
:104A600013F00C0F18BF4FF4696012D0844228BFB6
:104A70002046044612F00C0F18BF4FF4696012D0A4
:104A8000844528BF604684460CEB04000844801D22
:104A900070BD012B08BF4FF4E470E7D0022B08BFB4
:104AA000E820E3D008E0012A08BF4FF4E470E7D023
:104AB000022A08BFE820E3D040F223210620FCF7B9
:104AC00081FD000027040020040000000400000015
:104AD00070B46FF01F02010C02EA90251F23A1F5AC
:104AE000AA4054381CBFA1F5AA40B0F1550009D026
:104AF000A1F52850AA381EBFA1F52A40B0F1AA009E
:104B0000012000D100204FF0000C62464FEA0C0457
:104B10008CEA0106F6431643B6F1FF3F11D005F0CB
:104B200001064FEA5C0C4CEAC63C03F00106520851
:104B30006D085B08641C42EAC632162CE8D370BCD0
:104B4000704770BC002070472DE9F04F4FF000080F
:104B500083B047462326DFF8BCB1DFF8BC91C246DC
:104B600000F01EF900EA400101EA410101EA4101B9
:104B700001EA410101EA4101054611EA410F7DD1F7
:104B8000E84300EA400000EA400000EA400000EA92
:104B9000400000EA400010EA400F6FD1A81680EAFA
:104BA0006000411E084269D0E8B2411E0840411E23
:104BB000084263D0A8B200F00BF90B285ED8284653
:104BC0000EF0DEFA182859D82846A9B2B1EB104FDA
:104BD00007D14FF0FF1101EA102105F0FF108142CB
:104BE0004CD085EA0B00411E08427ED02C46CDF801
:104BF00000A06846CDF804A0FDF7A0FC40B90098DD
:104C00008169A14271D06846FDF798FC0028F6D072
:104C1000D9E90001CDE900016846FDF78FFC40B9F4
:104C200000988169A14260D06846FDF787FC0028A2
:104C3000F6D0D9E90201CDE900016846FDF77EFC16
:104C400040B900980168A1424FD06846FDF776FC54
:104C50000028F6D0D9E90401CDE900016846FDF746
:104C60006DFC40B900980068A0423ED06846FDF750
:104C700065FC0028F6D02F46280C00E035E06FF0E8
:104C80001F0101EA9724A0F5AA414FF01F0C5439E7
:104C90001CBFA0F5AA41B1F155010AD0A0F52851D9
:104CA000AA391EBFA0F52A41B1F1AA014FF00108AF
:104CB00001D14FF0000800221146134682EA000598
:104CC000ED430D43B5F1FF3F20D004F0010552083C
:104CD00042EAC53249080CF0010564085B1C41EA50
:104CE000C5314FEA5C0C162BE8D3761E03D0B8F121
:104CF000000F3FF435AF002F1EBF384603B0BDE8AC
:104D0000F08F40F267110F20FCF75CFC4FF00008B9
:104D1000EBE70000D6BE898E1C4D000000000000AD
:104D2000000001000000000000000300000000007F
:104D30000000040010B50C4C08212046FCF7E2FCF2
:104D40002068002804BF60680028F5D0074C00BF29
:104D50004FF008012046FCF7D5FC2068002804BF6E
:104D600060680028F4D010BDF4000020FC00002092
:104D7000094A0A48D2E9001348434B4083EAB1117B
:104D800081EA432111604FEAF0604FEAF34100EB02
:104D90008000516070470000F4000020BB79379E0E
:104DA000094A0A48D2E9001348434B4083EAB1114B
:104DB00081EA432111604FEAF0604FEAF34100EBD2
:104DC0008000516070470000FC000020BB79379ED6
:104DD00040F34E01484080B220F0AA010D4A21F470
:104DE0002A4102EA5000084420F0CC010A4A21F48A
:104DF0004C4102EA9000084420F0F0016FF0F0020C
:104E000021F4704102EA1010084400EB1020C0B2F7
:104E10007047000055D5FFFF33F3FFFF70B5A0F1D9
:104E2000340530F8DC6C1B480C46016800291CBFB7
:104E3000284688471848016800291CBF3046884723
:104E4000002060700C2121702071A4F8056095F895
:104E50003D00E0713046FDF7D5FC0DF003F8A8B138
:104E60003046FDF7A1FF00213046FDF7B7FB0121D9
:104E70003046FDF7B3FB002818BF70BD0748006837
:104E8000002808BF70BDBDE8704000477321632053
:104E9000FCF798FB040100200C0100200801002011
:104EA00010B5041D06F020F9044A41F6070302403C
:104EB00001EA03002260606010BD00002F4904F782
:104EC00070B540680D1D00F1A80406F00DF941F61B
:104ED0000702054B114094F86E201840024062F31F
:104EE00007002860696070BD2F4904F72DE9F84F6D
:104EF0004768064607F1A809FFF784F90546706878
:104F00007F2D00F1A80480F8C15008BFBDE8F88FDC
:104F100094F83300D6F80480A0764548A1688268EA
:104F2000C2F580536B43514303EB2131A1604179BA
:104F300000293DD0716890F9002001F1A80AD1F84C
:104F4000B01001F50061091349B2914207DA90F9F6
:104F50000200494249B2084400F307000AE090F910
:104F600001208A4224DA90F90300494249B20844F8
:104F700000F30700E0B1DAE900016FF000425140B0
:104F800071EA000014D010F0DCFBDAE90023801A8B
:104F900071EB03000CD3D6F804A00AF5DC7B07F014
:104FA00013FB8AF86F0023490BF1CC000EF036F8A2
:104FB00094F91B000021281A48BF404298F82D2080
:104FC000824210DCFF2A0ED0207F401CC0B2207726
:104FD00098F82E20904202D8E07E7F2803D100204E
:104FE000E5762077012197F82C00012818BFBDE84D
:104FF000F88F002908BFBDE8F88F706890F8C011DD
:105000008DF800109DF8001000F5DC70002918BF25
:10501000BDE8F88F3988418199F81910017399F822
:105020001A104173BDE8F84F02220349FFF7B0BBE5
:10503000100100203D500000853201002DE9F041B3
:10504000A0F52175A0F5EE7482B095F86F000EF012
:10505000DAFF8046A0682E4E00F50060001396F936
:10506000001040B2884207DA96F90210404240B27E
:10507000084400F307070DE096F901108142A4BF30
:1050800002B0BDE8F08196F90310404240B20844F6
:1050900000F30707002F04BF02B0BDE8F0816FF0F6
:1050A0000042D4E90001514071EA000004BF02B09F
:1050B000BDE8F08110F045FBD4E90023801A71EBC4
:1050C00003003CBF02B0BDE8F081288869460DF0BE
:1050D00076FB18B185217A20FCF774FA08F10100FB
:1050E000C1B202233A4668460EF0CEFF00281CBF2C
:1050F00002B0BDE8F08130790649A0FB015610F0FE
:1051000020FB40197141C4E9000102B0BDE8F08103
:105110001001002040420F002DE9F84391F801C032
:105120000A788C784FEA1C6342EA0C2242EA044275
:1051300043EA1443CC784FEA142C42EA04640A7917
:1051400043EA0C031A434979012842EA012108BFC6
:1051500041F480310D466A46204600F095F800285B
:105160001CBF0120BDE8F883DFF8608098F80000DC
:1051700098F80110884204BF0020BDE8F8839DF82C
:105180000090484515D9D8F80410A0EB090C01EBA4
:10519000C00300220CF0FF0C861A01EBC606521C5D
:1051A00056E9027663E80276ACF1010C1CF0FF0CC4
:1051B000F2D1D8F80410401C01EBC901C1E9004547
:1051C00088F800000120BDE8F88300001C010020E1
:1051D00010B510F0070F03D063214820FCF7F2F957
:1051E00020B1034A5170506000201070C80010BDFB
:1051F0001C01002038B54B780A784FEA136C8C7884
:1052000042EA0323CA7843EA04434CEA144C43EAD3
:1052100002634CEA122291F804C0497942EA0C0276
:1052200042EA0121012808BF41F4803118466A464C
:1052300000F02AF8002808BF38BD0C480178491E44
:10524000C9B201709DF800208A420DD24068891AC7
:1052500000EBC200C9B20830491E70E8022311F009
:10526000FF01E0E80423F7D1012038BD1C01002034
:1052700001490020087070471C0100200148407857
:10528000704700001C0100202DE9F001294E002389
:1052900013703378002B44D05B1EDBB24FF0000C50
:1052A000012BC8BF756810DD0CEB0304640805EB27
:1052B000C407D7E90087B8EB00088F4134BFA44684
:1052C0002346A3EB0C04012CEEDC766806EBCC0540
:1052D000D5E9004580EA040781EA050857EA08078E
:1052E00008BF82F800C020D0041B71EB05043FBF4B
:1052F00082F800C00020BDE8F001704706EBC30C47
:10530000DCE9004C80EA040581EA0C06354308BF5D
:1053100013700AD0001B71EB0C0032BF1370581CC5
:1053200010700020BDE8F0017047BDE8F0010120D9
:10533000704700001C0100202DE9F0410446807CEC
:10534000002816BF02280020012084F8680018B346
:10535000607E68B3D4F81300C4F86900B4F817008D
:10536000A4F86D00A07C022816BF032801210021AB
:10537000A1764FF00800E07694F868004FF001073E
:105380004FF00008012804BF94F86E2012F0C00FFF
:105390001BD0012811D016E004F169010020FDF7AF
:1053A00083FD0028DED140F2BA412D20FCF70AF936
:1053B00040F2BE412D20FCF705F994F86E0000F094
:1053C000C000402801D0002000E00120207731B14A
:1053D00094F86F0004F17001FEF740FDE076FEF7EF
:1053E0005DFD3749A0FB016510F0ABF980196941FB
:1053F000C4E918010026E07EFEF7DCFC0546A07E2D
:10540000002818BF002D03D0E07EFEF7C7FC58B17E
:1054100094F8820000281CBF207F00281DD094F83B
:10542000680001280ED013E084F86870324604F159
:10543000690128460DF066F9E17E04F16900FEF786
:10544000C5FC0AE094F86E0000F0C00040282FD0A0
:10545000414604F169000DF044F984F87680A078A3
:1054600010F0040F08BFBDE8F0810026E07EFEF7D3
:10547000BBFC050008BFBDE8F0811021FEF772FEFD
:10548000002818BFBDE8F08184F87670324604F138
:10549000770128460DF036F904F17701094CA06830
:1054A0000DF00CFDA068BDE8F04101210DF00DBD2F
:1054B000FEF770FC324604F169010DF023F9CCE7E8
:1054C00040420F0024010020F8B504460D4630305C
:1054D0000EF0D9F8B4F802C0CCF3001129B1BDE840
:1054E000F8402822614602F03FBBCCF3400100297E
:1054F00014BFB4F85C60B4F8546021791D4A4FF4CD
:105500007A73082932F8112002F2E732B2FBF3F77E
:1055100008BF40230AD0042908BF102306D002295F
:1055200007BF042312220823192200E0142213FBD0
:1055300002F2082908BF402319D0042908BF2E23EE
:1055400015D0002302290CBF182128211944114429
:1055500011FB00716FF07F0202EBC0100144CDF827
:1055600000C062792B46304601F05EFFF8BD4FF473
:10557000A871EBE7047B00002DE9F04F80468FB067
:105580000C46C269D8E90501D8E90076D8E903A933
:105590000592CDE90301D8E90801D8F82820CDE922
:1055A0000601089201A80EF017F9A07A60F31749D6
:1055B000207860F30707B4F80100ADF800009DF80B
:1055C000000000F00101C0F3400241EA4201C0F3D3
:1055D000800241EA8201C0F3C00241EAC201C0F385
:1055E000001241EA0211C0F3401241EA4211C0F335
:1055F000801041EA801B207D6BF31F47012818BFF4
:10560000022803D0032808BF08200ED1617860F378
:10561000070611F0100F0FD1A17D012918BF022933
:1056200008D0032908BF082104D040F2E921062050
:10563000FBF7C8FF61F30F26CAF30741012908D021
:10564000617A01A80EF0A3F8207D012102280FD174
:105650000BE00421082808BF61F30706C6F3072002
:10566000082808BF61F30F26EAE7607D401CC1B23D
:10567000A07E401CC2B201A80DF0EEFF380C10F065
:10568000080F4FF0000524D101A80DF0FCFF617850
:1056900011F0100F7FD02822594602F065FA00BFA2
:1056A00040F2712100F2DB20B0FBF1F000FB01F5CC
:1056B000D4F8020040F27122000A4143D4F80500F8
:1056C000000A50438D4298BF0D4602D9854288BFDB
:1056D0000546A07C60F30F29207E012818BF00201A
:1056E00060F3070AD8F84C000CF0D4FE8346D8F8D3
:1056F0004C000CF07BFF834528BF584698B101A9A8
:105700000A91390CADF82C108DF83460310A8DF8FF
:1057100035100C950AA902F0D1F8002802BF4520E7
:105720000FB0BDE8F08FC8F80CA0C8F80070C8E949
:105730000165DDE90301059AC8F81090C8F81C203E
:10574000C8E90501DDE90601089AC8F82820C8E97A
:1057500008010198C8F83000BDF80800A8F8340026
:10576000E07A002816BF02280020012088F86F0088
:10577000E068C8F87000208AA8F87400E07D98F806
:10578000461060F3071188F846100FB04FF0000084
:10579000BDE8F08FFFE70346F0B221494FF47A727B
:1057A000082831F8101001F2E731B1FBF2F208BF1E
:1057B0004FF0400C0DD0042808BF4FF0100C08D05B
:1057C000022807BF4FF0040C12214FF0080C1921DA
:1057D00000E014211CFB01F1082808BF40251BD064
:1057E000042808BF2E2517D002280CBF1820282017
:1057F0002844084410FB03206FF07F0101EBC31124
:105800004518FDF717F9390C0091C6F3072201235B
:10581000294601F009FE43E74FF4A870E8E70000CD
:10582000047B000002490148C8607047507B0000BB
:1058300024010020114A10B500211170104CA06005
:10584000107820B140F22E312D20FBF7BBFE116005
:1058500051609160D160116151619161D1611162BA
:1058600006F0DAFA06F07EF8E068002818BF10BDEE
:1058700040F231312D20FBF7A5FE00003C11002045
:105880002401002002494860C968096808470000EF
:10589000240100200B4910B50878002818BF0C24FB
:1058A00001D0204610BD00240C604C608C60CC60A0
:1058B0000C614C618C61CC610C6206F0ADFA06F0B3
:1058C00051F8EEE73C110020054910B5097801298F
:1058D0001CBF002010BD01F087FF002010BD00009C
:1058E0003C1100202DE9F04104468078C0F3C0004F
:1058F00058B13C23FF222046216A02F04BF80222D5
:105900001E4904F18600FEF743FFA0784FF0000522
:1059100010F0010F20D0206A3C26078805F038FBE4
:10592000A8B9217884F8BB10A4F8BC7084F8BA60D8
:10593000607B10B984F8BE5003E094F8480084F806
:10594000BE0002220E4904F1B000FEF721FF012043
:1059500084F88100BDE8F0814FF6FF773C2605F022
:1059600017FB0028F3D1217884F8BB10A4F8BC7091
:1059700084F8BA60607B0028DFD1DBE7D535010011
:105980006D3501002DE9F8430D00044616D004F1F1
:1059900030000DF0FEFE38B9A078C0F3C00088B129
:1059A00004F130000DF020FF04F130000DF0ACFEEA
:1059B00007F0BCF92179252007F084F994F87610D6
:1059C0004DB904E02046BDE8F84301F00DBF0022C8
:1059D000204601F0A9F82E4EB068C17811F03F0FB3
:1059E00014BF01220022017911F0100118BF01211A
:1059F000114214D00DF0CEF9074604F130000DF03D
:105A0000C8FE401CC2B2204621793B4601F098FCFA
:105A10000090032304226946B0680DF098F91D4FE9
:105A20004DB3BD68B0680DF0B5F9804604F13000A3
:105A30000DF029FE814604F130000DF0AAFEA9EB1D
:105A40000000401EC1B2207942460DF0D2FE05444E
:105A5000A078C0F3C00040B1786801210544204619
:105A6000FFF732FD2844C4F820012279294600209E
:105A700006F010FF30B1B06806F0BEFE06203870A8
:105A8000BDE8F88340F6D8512D20FBF79BFD0000C0
:105A9000240100203C1100202DE9F041734E0F003D
:105AA000044627D004F130000DF073FEC0B9A07891
:105AB000C0F3C000002838D004F130000DF0E3FD41
:105AC000054604F130000DF064FE281AC0B20DF056
:105AD000ABFE71680844706004F130000DF084FE84
